:100000000C9416030C945D030C945D030C945D0337
:100010000C945D030C945D030C945D030C945D03E0
:100020000C945D030C945D030C94AA240C947E251F
:100030000C94481C0C945D030C945D030C945D03BC
:100040000C945D030C945D030C945D030C945D03B0
:100050000C945D030C949F1C0C945D030C945D0345
:100060000C945D030C945D030C945D030C945D0390
:100070000C945D030C945D030C945D030C945D0380
:100080000C945D030C945D030C945D030C945D0370
:100090000C945D030C945D030C945D030C945D0360
:1000A0000C945D030C945D030C945D0329003A00ED
:1000B0003B003C003D003E003F004000410042004C
:1000C0004300440045002C0046004700480035002E
:1000D0001E001F0020002100220023002400250014
:1000E000260027002D002E002A0049004A004B0060
:1000F0002B0014001A000800150017001C0018003F
:100100000C00120013002F00300031004C004D0095
:100110004E00390004001600070009000A000B0019
:100120000D000E000F00330034002C0028000000EA
:1001300000000000E1002C001D001B00060019005B
:10014000050011001000360037003800E5002C00D3
:10015000000052000000E000E300E20000000000A8
:1001600000002C0000000000E200E3000151E0006C
:100170000000500051004F00005C01000100010030
:100180000100010001000100010001000100010067
:100190000100010001000100010001000100010057
:1001A0000100010001000100010001000100010047
:1001B0000100010001000100010001000100010037
:1001C0000100010001000100010001000100010027
:1001D0000100010001000100010001000100010017
:1001E0000100010001000100010001000100010007
:1001F00001000100010001000100000000000000FA
:1002000001000100010001000100010001000100E6
:100210000100010001000100010001000000BF5CBD
:1002200000000100010001000000000000000100CA
:1002300000000000010001000100010000000100B9
:10024000C05C01000100010001000100010001008B
:100250000100010001000100010001000100010096
:100260000100010001000100010001000100010086
:100270000100010001000100010001000100010076
:100280000100010001000100010001000100010066
:100290000100010001000100010001000100010056
:1002A0000100010001000100010001000100010046
:1002B0000100010001000100010001000100010036
:1002C0000100010001000000000000000100010029
:1002D0000100010001000100010001000100010016
:1002E0000100010001000100000001000000010008
:1002F00001000100000000000000010000000000FB
:1003000001000100010001000000010001000100E6
:1003100001000100010001000100010001000100D5
:1003200001000100010001000100010001000100C5
:1003300001000100010001000100010001000100B5
:1003400001000100010001000100010001000100A5
:100350000100010001000100010001000100010095
:100360000100010001000100010001000100010085
:100370000100010001000100010001000100010075
:100380000100010001000100010001000100010065
:100390000100000000000000010001000100010058
:1003A0000100010001000100010001000100010045
:1003B0000100010000000100000001000100010037
:1003C000000000000000010000000000010001002A
:1003D0000100010000000100010001000000000018
:1003E000000000002A2B2800000000000000000090
:1003F0000000000000000029000000002C1E342036
:10040000212224342627252E362D3738271E1F205B
:100410002122232425263333362E37381F040506A0
:100420000708090A0B0C0D0E0F10111213141516E4
:100430001718191A1B1C1D2F3130232D35040506E2
:100440000708090A0B0C0D0E0F10111213141516C4
:100450001718191A1B1C1D2F3130354C00000000D5
:10046000000000000000000000000000000000008C
:100470007E0F00D4FFFFFFC70000007804033000A8
:1004800000000E036E006500620075006C006100E4
:10049000000008034500560045000000040309045D
:1004A00009025B00030100A0FA0904000001030136
:1004B0000100092111010001224000070581030804
:1004C000000A0904010002030000000921110100D3
:1004D00001222200070582032000010705030320F3
:1004E00000010904020001030000000921110100BC
:1004F0000122BC000705840320000A12011001003C
:10050000000008200395190200010203010660FFA4
:100510000961A1010962150026FF00952075088177
:10052000020963150026FF00952075089102C00599
:10053000010902A10185020901A10005091901298A
:100540000515002501950575018102950175038149
:10055000010501093009311581257F950275088152
:100560000609381581257F950175088106050C0A55
:1005700038021581257F950175088106C0C00501E7
:100580000980A101850319012AB700150126B700CA
:10059000950175108100C0050C0901A101850419A0
:1005A000012AA002150126A002950175108100C044
:1005B00005010906A1018505050719E029E71500D0
:1005C00025019508750181020507190029EF15001D
:1005D000250195F075018102050819012905950588
:1005E00075019102950175039101C005010906A1EC
:1005F00001050719E029E715002501950875018116
:10060000029501750881010507190029FF150026CB
:10061000FF00950675088100050819012905950553
:1006200075019102950175039101C00011241FBE4F
:10063000CFEFDAE0DEBFCDBF04B603FE27C0809166
:10064000E0029091E102A091E202B091E3028730D2
:10065000904BA740B04BD1F41092E0021092E1020F
:100660001092E2021092E30214BE84B7877F84BF27
:100670000FB6F894A895809160008861809360001F
:10068000109260000FBEE0E0F8E3099511E0A0E0F1
:10069000B1E0E0E6F0E502C005900D92AE39B10799
:1006A000D9F722E0AEE9B1E001C01D92A03EB20749
:1006B000E1F70E946F210C94F3270C94000090E066
:1006C00080E008950895089581E0089581FF03C0B2
:1006D0003F9A479808953F98FCCF81E008950C9485
:1006E000640308950C9471031F93CF93DF9300D09C
:1006F00000D00F92CDB7DEB749835A836B83309118
:10070000C40189819A8131111DC06623B9F0222369
:10071000A9F00E943919182F682F89819A810E94A7
:10072000E51869817A81812F0F900F900F900F90BB
:100730000F90DF91CF911F910C94510C0E941119D1
:10074000182FEFCF0E94391969817A81EDCFFC0112
:10075000262F408151816281738184810C947403BE
:10076000CF93DF93EC0160E00E94A703BE01DF910D
:10077000CF910C947203FF920F931F93CF93DF934B
:10078000E82FF0E0E452FC4FF490C82FC695C695D0
:10079000C695D0E0FE01E459FB4F0491877010E04C
:1007A000082E02C0159507950A94E2F701701127EB
:1007B000C45ADB4FFE01C491D0E002C0D595C79565
:1007C0008A95E2F7C170DD270115110519F081EE58
:1007D0000E94D510209719F086EE0E94D5108F2D1B
:1007E0000E94BD11CD2B19F086EE0E946711012BDE
:1007F00041F081EEDF91CF911F910F91FF900C940A
:100800006711DF91CF911F910F91FF900895EF92A3
:10081000FF920F931F93CF93DF93EC01162F0AE003
:100820008881882309F454C0813009F04EC0898141
:10083000813099F47E0122E0E20EF11C8A810E944F
:10084000BD11E7012196812F815050F3EFE9FFE0C0
:100850003197F1F700C00000F7CF823041F47E01FC
:1008600082E0E80EF11C8A810E94D510EACF833025
:1008700041F47E01E2E0EE0EF11C8A810E946711D4
:10088000E0CF843011F02196DDCF2A81229690E0CE
:1008900080E0AE014F5F5F4F2053330B2A303105AC
:1008A00048F0019778F2EFE9FFE03197F1F700C0E7
:1008B0000000F7CF089FB001099F700D1124C901F6
:1008C000860F971F2981EA01E4CF0E94BB03BACFAC
:1008D000DF91CF911F910F91FF90EF90089560E00D
:1008E0000C9407048F929F92AF92BF92CF92DF92A7
:1008F000EF92FF920F931F936B017C0181E090E0D8
:10090000A0E0B0E04C015D0104C0880C991CAA1C59
:10091000BB1C4A95D2F7B501A4014C015D0104C08E
:10092000880C991CAA1CBB1C2A95D2F74829592966
:100930006A297B2904C0880F991FAA1FBB1F0A952B
:10094000D2F78A019B010C211D212E213F21041782
:1009500015072607370789F48C299D29AE29BF2959
:10096000BC01CD011F910F91FF90EF90DF90CF90D0
:10097000BF90AF909F908F90089580959095A0958F
:10098000B0958C219D21AE21BF21EACF0F93382F46
:10099000262F60913E0270913F028091400290911B
:1009A0004102042F432F0E9472040F910C942318CC
:1009B0000E94E91C0E94831A811102C00E94291B17
:1009C0000E94EA090C9444070C9446070C946603B1
:1009D00081E008950C94E804CF93C82F0E94E604A8
:1009E0008C2FCF910C94EA0408950E944C140E941D
:1009F000F4042FEF84E39CE0215080409040E1F725
:100A000000C000000C94C31C0F931F93CF93DF937F
:100A1000EC0161E00E94A7038C01BE010E94510A13
:100A2000882389F1BE01C8010E946F03882359F110
:100A3000BE01C8010E945609882329F1BE01C801E0
:100A40000E94A70D8823F9F0BE01C8010E94F90D8C
:100A50008823C9F0BE01C8010E941C0F882399F0A9
:100A60008A81882339F001158CE5180751F00E3D75
:100A70001C4579F0CE01DF91CF911F910F910C941D
:100A80006D030E94F50480E0DF91CF911F910F91DB
:100A900008950E94291BF7CF0895FC01EE0FFF1F58
:100AA000E458FB4F859194910895CF93DF930E9472
:100AB000510C0E946A06EC01811520E5920708F0AE
:100AC00042C0811530E4930708F0BDC0883E91050F
:100AD00028F5803E910508F09DC0883A910588F47C
:100AE000853A910508F08FC08130910509F492C0D4
:100AF000009709F48FC0049708F08CC0D0E0C0E0E4
:100B000089C08F3B910508F489C0805C9109C03C85
:100B1000D105A0F30E944D05EC017CC081159042E7
:100B200050F4C11581E0D80708F074C0C03FD1056A
:100B300028F3D0656FC0C11590E3D90708F079C0DC
:100B4000CE019F70E7CF811525E5920758F58115F5
:100B500034E5930708F0A6C0811542E5940750F4E8
:100B6000C11581E5D80708F471C0DC2FCC27C16F0F
:100B7000D06A50C0982F969596959E012370332782
:100B8000C115D34508F07FC0C1E0D0E002C0CC0F52
:100B9000DD1F2A95E2F720E2929FC0011124C82BA5
:100BA000D92B6FC0C11589E5D807A8F4C11598E500
:100BB000D90708F07CC0C11526E5D20708F09ECF02
:100BC0008C2F0E940107C82FD0E0DC2FCC27CC2728
:100BD000DF71D0621FC0C1153AE5D30708F46CC0BD
:100BE000CE0190568115904208F088CF8D2F8F71DD
:100BF0000E94010790E0982F882788279F719C0109
:100C00002C2BE901E6CFC55AD0E0CD5BDE4FC88181
:100C1000D0E0D064CE01DF91CF910895C85AD0E0E2
:100C2000CC0FDD1FCB5EDE4F0990D881C02DD46480
:100C3000F1CFCE019927D3FF03C0EC01D86CEACFE6
:100C4000EC01D06CE7CFDF70D06AE4CFCE01E4E0F6
:100C500096958795EA95E1F783702C2F2695269532
:100C6000237090E2299F90011124382B8C2F8370E0
:100C7000C1E0D0E002C0CC0FDD1F8A95E2F7C22BA5
:100C8000D32BDC68C7CFC1E0D0E002C0CC0FDD1FA2
:100C90002A95E2F730E2939FC0011124C82BD92B8B
:100CA000DA68B8CFD82FCC27C46FD06AB3CFDC2F87
:100CB000CC27C06FD06AAECF8C2F8F700E940107F7
:100CC00034E0D695C7953A95E1F7CF709C2FEC01AB
:100CD000D069A0CF82389105B1F1B0F4813391058C
:100CE00009F475C048F48932910509F469C08A3263
:100CF000910509F473C008958533910509F459C02D
:100D00008933910501F10895833E9105A9F138F4E5
:100D1000803E9105F9F0823E910549F10895863EA5
:100D20009105A9F1873E9105C9F1843E910519F518
:100D30002091D20221FF1FC08091D10284FD14C0F6
:100D400087EE90E008952091D1022370A1F080EE0B
:100D500090E008952091D10220FD47C03091D20249
:100D600030FF09C024FF44C090E080E004C020911F
:100D7000D10222FDF7CF08952091D10222FD3BC080
:100D80003091D20230FDE3CF24FFF5CFEDCF20919B
:100D9000D10223FFF0CF24FDE7CFD2CF2091D102A3
:100DA00023FD2CC03091D20231FFEECF84EE90E0D3
:100DB00008952091D10225FFDECF89E290E00895C9
:100DC0002091D10225FFD7CF85E390E008952091AF
:100DD000D10226FFD0CF8AE290E008952091D1027F
:100DE00026FFC9CF81E390E0089589E390E008955C
:100DF00083EE90E0089582EE90E0089586EE90E014
:100E000008959091D10292FF06C0282F28712830B2
:100E1000F9F4877F846093FF06C0282F287128315A
:100E2000F1F4877E84612091D20220FF06C0382F22
:100E300038713830D9F4877F816021FF06C0282FB0
:100E400028712831D1F4877E816194FD877E0895D1
:100E5000282F24712430F9F68B7F8860DCCF282F6F
:100E60002471243101F78B7E8861DDCF382F3171F9
:100E7000313019F78E7F8860E0CF282F2171213122
:100E800021F78E7E8861E1CF0C9462030C9463039A
:100E900094E0899FF0011124EC54FD4F6081718131
:100EA000828193810895089580EA8A95F1F70895E3
:100EB000A7E5B1E061E070E08D91E82FE295EF7079
:100EC000F0E041A18F709B0101C0220F8A95EAF7E3
:100ED000922F9095942391A382A1822B82A381E0EB
:100EE000AD35B80749F7A6E4B1E061E070E08D9157
:100EF000E82FE295EF70F0E041A18F709B0101C0F7
:100F0000220F8A95EAF7922F9095942391A382A1BC
:100F1000822B82A381E0A735B80749F7ECE9F2E01C
:100F2000A4EBB2E084EB92E0119211921192119233
:100F30001D921D921D921D928E179F07A9F786E0A4
:100F40000E9447080C94D8042F923F924F925F92D0
:100F50006F927F928F929F92AF92BF92CF92DF92C9
:100F6000EF92FF920F931F93CF93DF9337E5C32E3A
:100F700031E0D32E4CE9E42E42E0F42E10E0882438
:100F80008394912CF60181916F01C82FC295CF7087
:100F9000D0E099A18F70540101C0AA0C8A95EAF79C
:100FA000892F8A2989A38AA10A2D009580238AA3E3
:100FB0000E945407A6E4B1E090E080E040E050E0F9
:100FC000BA012D90E22DE295EF70F0E020A130E023
:100FD000E22DEF7002C035952795EA95E2F7412C96
:100FE000512C320120FD0CC0412C512C3201439474
:100FF000082E04C0440C551C661C771C0A94D2F7BA
:101000004429552966297729019681319105C9F628
:1010100089A1082309A38AA1A82AAAA2F70180818D
:101020009181A281B381481759076A077B0769F14B
:10103000408351836283738381E0182BF4E0EF0EC9
:10104000F11C8DE5C81681E0D80609F09BCF212F51
:1010500046E064EB72E08CE992E00E9448080E944E
:10106000E404812FDF91CF911F910F91FF90EF90BA
:10107000DF90CF90BF90AF909F908F907F906F90B8
:101080005F904F903F902F90089580E0D6CF0895C5
:10109000FF920F931F93CF93DF93F82ED92F8B01DD
:1010A000C42F222349F081E08093A0010E94781C84
:1010B00090939F0180939E018091A001882399F0D5
:1010C00080919E0190919F010E94901C069758F07C
:1010D000EF2DFD2FD80190E080E0D0E08C179D0728
:1010E00044F01092A001DF91CF911F910F91FF90DA
:1010F000089501911191219131910D931D932D939B
:101100003D930196EBCF8091CC020C94B51A80915F
:10111000CC0286958695869508950E94831A811142
:1011200002C00E94291B0E94B11A8093CC02803316
:1011300020F0877088628093CC029091CC02892F36
:10114000817090FF04C0892F8695869586950C94B2
:101150008B098091CC02982F96959695969595300F
:1011600040F49F5F990F990F990F8770892B809397
:10117000CC028091CC0281608093CC020E94B51A8F
:101180008091CC028695869586950C948B098091EA
:10119000CC02982F987F79F088508093CC02887F7A
:1011A00091E009F490E08091CC0290FB80F980936B
:1011B000CC020E94B51A8091CC02869586958695C0
:1011C0000C948B098091CC0280FD13C081608093C8
:1011D000CC02813019F489E08093CC028091CC025A
:1011E0000E94B51A8091CC028695869586950C94BE
:1011F0008B0908958091CC0280FF08C08E7F809378
:10120000CC020E94B51A80E00C948B09089580915D
:10121000CC0280FD0C94FA080C94E2089091CC0268
:10122000892F8695869586958F5F8F71977086300A
:10123000D8F4880F880F880F892B8093CC02809177
:10124000CC02887F91E009F490E08091CC0290FB81
:1012500080F98093CC020E94B51A8091CC028695C9
:10126000869586950C948B099093CC02E8CF8630B6
:1012700008F085E09091CC029770282F220F220F62
:10128000220F922B9093CC02987F21E009F420E06A
:101290009091CC0220FB90F99093CC020C948B0996
:1012A0000E9437098091CC020C94B51A9C01FB0175
:1012B0008281882349F12D3BFCE53F07C9F040F4CA
:1012C0002B3BECE53E0769F02C3B3C4579F008955B
:1012D0002F3B9CE5390791F070F0203C3C4589F0AC
:1012E000089585E00E94500980E0089580E0FACFDB
:1012F0000E94C708F9CF0E94A908F6CF0E940709EB
:10130000F3CF0E940E09F0CF81E00895279A2F981D
:1013100008952F980895CF92DF92EF92FF92CF9386
:10132000C82F863040F5811127C080918000877FCB
:10133000809380000E9489092C2F30E0AFEFBFEF2F
:101340000E94972725E030E040E050E00E946827A7
:10135000C9012C3764E13607A8F469E070E00E9407
:10136000402770938D0060938C00CF91FF90EF9099
:10137000DF90CF900895C5E08091800088608093D1
:101380008000DACF2A50374D4F4F5F4F942F832F75
:10139000722F662725EF38E241E050E00E9468276F
:1013A00069017A01CA01B9010E9430279B01AC0191
:1013B000C701B6010E943027672F782F892F992700
:1013C0006115710521E08207910559F66FEF7FEFF6
:1013D000C8CF08950E9486098AE08093800089E141
:1013E000809381008FEF9FEF90938700809386001A
:1013F0000C948D0882E290E00E94B127803289F43B
:1014000083E290E00E94B127803159F484E290E0B9
:101410000E94B12791E0853009F090E0892F81701A
:10142000089580E0FCCFCF93C82F6FEF811160E269
:1014300082E290E00E94BF276FEFC11160E183E27A
:1014400090E00E94BF276FEFC11165E084E290E059
:10145000CF910C94BF2780E00E94130A0C947D1A50
:10146000089585E290E00E94B127682F70E090E037
:1014700080E0089585E290E00C94BF270E94300A36
:101480000E94FA0981110CC060E070E0CB010E945B
:101490003A0A0E94C90B0E94B50C81E00C94130A11
:1014A0000895CF93FB01C281CC2309F19C01225105
:1014B0003F452031310520F582510E94C50CC0E026
:1014C0008C2FCF91089581E00E94491843E062E09B
:1014D00081E00E94C604F3CF81E00E946A1843E0D5
:1014E00062E081E00E94C604EBCF82E0F6CF80315B
:1014F000FFE59F0789F381319F45B9F3C1E0E0CF54
:101500008031EFE59E07F9F281319F45C9F682E00F
:10151000DBCF2FEFFC0120830895CF93DF93EC0105
:101520008881893029F08A3079F0DF91CF91089550
:101530000E9487082FEF829FC001112465E070E0B0
:101540000E9440276983F1CF1982EFCFFC012081EF
:10155000293061F48181F5E08F9FC00111246FEF84
:1015600070E00E944027862F0C9437090895EF926F
:10157000FF920F931F93CF93DF93EC01E62EDC01D4
:10158000ED91CD01E150E33108F0C0C0F0E0EB5047
:10159000F84D0C948A27198289E08A836E2DCE013A
:1015A000DF91CF911F910F91FF90EF900C946320EA
:1015B0008981823069F0833071F08130E1F40E94DA
:1015C000841C0E9490276A837B838C839D83E6CF53
:1015D0000E94310AF6CF8E01F12C8F2D0E94480710
:1015E000F801828373836483F3940D5F1F4FF6E0E9
:1015F000FF12F3CFD3CF6E2DCE010E94890ACECF3A
:1016000089818230C1F76A817B818C819D810E94B2
:1016100090270E943A0AC2CF4B816A8189810E9439
:101620009B0B9827892798279D838C83B7CF2C8184
:101630003D813227232732274B816A8189810E948D
:10164000B40BACCF0E94C90BA9CF0E94A60AA6CFAB
:101650000E948D0AA3CF0E948308A0CF0E945E0C37
:1016600089839CCF0E94600C9827892798279A83AA
:10167000898394CF6B8170E089819A81AE014C5F40
:101680005F4F9827892798270E94630C87CF6B812B
:1016900070E089819A81AE014C5F5F4F982789275E
:1016A00098270E948A0C7ACF0E94B50C77CF0E94AF
:1016B000890BD6CF6B8170E089819A81AE014C5F36
:1016C0005F4F9827892798270E94010C67CF6B816D
:1016D00070E089819A81AE014C5F5F4F982789271E
:1016E00098270E94270C5ACF0E942B0A57CFCE0171
:1016F0000E9463202FEF81EE94E0215080409040C3
:10170000E1F700C000000E94C31C48CF8FEF888320
:1017100045CF83E0089550E0440F551F92E2699F42
:10172000400D511D11249CEC899F400D511D112429
:10173000CA01869608950F931F93CF93DF930E945B
:101740008B0B8C010E94B127C82FD0E0DC2FCC2757
:10175000C80101960E94B1279E01282BC901DF9183
:10176000CF911F910F9108950F931F93CF93DF9304
:10177000122F032F0E948B0BEC01602F0E94BF27BA
:10178000612FCE010196DF91CF911F910F910C94A3
:10179000BF27AF92BF92CF92DF92EF92FF921F933B
:1017A000CF93DF938CEAC82E80E0D82ED0E076016C
:1017B000C0E014C0F50125913491412F6C2F8D2F7D
:1017C0000E94B40B82E0A80EB11C1F5F113191F78B
:1017D00082E2E80EF11CCF5FC63019F0570110E02D
:1017E000E9CFDF5F8CECC80ED11CD33001F7DF915D
:1017F000CF911F91FF90EF90DF90CF90BF90AF906F
:101800000895EF92FF920F931F93CF93DF93EC0114
:101810008A017C01E60EF71ECE018696CE15DF0505
:1018200039F4DF91CF911F910F91FF90EF900895C0
:10183000C43622E0D20740F40E94B127F801808329
:101840000F5F1F4F2196E8CFF8011082F9CFCF929A
:10185000DF92EF92FF920F931F93CF93DF937C0160
:101860006A018C01060F171FEC01CE018696C01786
:10187000D10749F4DF91CF911F910F91FF90EF9025
:10188000DF90CF900895C43622E0D20740F4FE01E5
:10189000EE19FF09EC0DFD1D60810E94BF27219606
:1018A000E4CF462F833038F4763028F4613118F4D1
:1018B000672F0C949B0B90E080E0089580E10895E1
:1018C00086E791E00895EF92FF920F931F93CF93D5
:1018D000DF93EC018A017C01E60EF71ECE018657EC
:1018E0009D4FCE15DF0539F4DF91CF911F910F91F8
:1018F000FF90EF900895C63721E0D20740F40E9490
:10190000B127F80180830F5F1F4F2196E7CFF801C1
:101910001082F9CFCF92DF92EF92FF920F931F9335
:10192000CF93DF937C016A018C01060F171FEC0136
:10193000CE0186579D4FC017D10749F4DF91CF9153
:101940001F910F91FF90EF90DF90CF900895C637D1
:1019500021E0D20740F4FE01EE19FF09EC0DFD1D58
:1019600060810E94BF272196E3CFCF93DF93CAE81F
:10197000D2E060E0CE010E94BF272196C11584E02D
:10198000D807B9F7DF91CF910895DF92EF92FF92D8
:101990000F931F93CF93DF9300D000D0CDB7DEB766
:1019A000F82E8FE08F1540F08FEF93E00E94B12763
:1019B0000AE812E08823C1F00F900F900F900F906B
:1019C000DF91CF911F910F91FF90EF90DF900895DD
:1019D000011584E0180781F3C8010E94B127811125
:1019E00001C0FA940F5F1F4FF110F2CF19821A82D3
:1019F0001B821C82DD24D39478018FEFE81AF80A49
:101A0000C8010E94B12789831A828823A9F29FEF17
:101A1000980F933078F48A83D9820E5F1F4FC701E5
:101A20000E94B1278B83882339F2CE0101960E9450
:101A30006F04E2CF8701F9CFAF92BF92CF92DF92CE
:101A4000EF92FF920F931F93CF93DF937C015B0183
:101A5000C42FD22FFC0182818823F9F04093A30187
:101A60000E94781C9093A2018093A10180E28C0FC8
:101A7000883008F061C0C77081E001C0880FCA9546
:101A8000EAF7DF91CF911F910F91FF90EF90DF90D8
:101A9000CF90BF90AF900C94D0111091A30114136C
:101AA00040C08091A1019091A2010E94901C6C0104
:101AB000B701C5010E94C216C816D90690F5C0E24A
:101AC000CD0F1D17B9F080E2810F883040F41770F8
:101AD00081E001C0880F1A95EAF70E94D711C8303B
:101AE00048F481E09D2F977001C0880F9A95EAF71E
:101AF0000E94D011802F0E94BD11C830E8F4D77029
:101B000081E001C0880FDA95EAF7DF91CF911F914C
:101B10000F91FF90EF90DF90CF90BF90AF900C941B
:101B2000D71180E28C0F883038F4C77081E001C093
:101B3000880FCA95EAF7E9CFDF91CF911F910F91F6
:101B4000FF90EF90DF90CF90BF90AF9008950F93EC
:101B50009C01CB01233F4CE5340759F1A8F4283D03
:101B6000FCE53F0701F1293D4CE53407D1F1273D64
:101B70003C4591F406E221EE41EE67ED7CE50E94E2
:101B80001C0D80E00F910895253FFCE53F07E9F02B
:101B9000B0F0263F3C45F9F0FC018281882339F101
:101BA0001092A301EFCF07E225EE45EE68ED7CE54C
:101BB000E6CF06E221EE40EE63EF7CE5E0CF07E200
:101BC00025EE44EE64EF7CE5DACF06E221EE42EE4C
:101BD00065EF7CE5D4CF07E225EE46EE66EF7CE5C7
:101BE000CECF08E221E045EE69ED7CE5C8CF81E08B
:101BF000C9CFCF93DF93EC01FB018281882309F4E5
:101C000019C1C230FCE5DF07C0F1C6319CE5D90738
:101C100030F09E012A5F3C452930310570F50E9465
:101C2000961A9093D2028093D102C031ECE5DE0780
:101C300009F4CFC008F05BC0C8308CE5D80709F4C0
:101C4000B6C088F5C430ECE5DE0709F4A8C0C0F4DE
:101C5000C2308CE5D80709F49CC08091D102826023
:101C6000C330DC4509F498C08091D1029091D20232
:101C70000E94A41A0E944C1480E0DF91CF91089535
:101C80008091D1028061C630ECE5DE0709F484C0A2
:101C90008091D1028860C730DC4508F47DC0809116
:101CA000D102806279C0CC308CE5D80709F489C0B4
:101CB00070F48091D1028C60CA30ECE5DE0709F443
:101CC0006BC008F478C08091D1028E7F65C0CE30A1
:101CD0008CE5D80709F479C08091D1028B7FCF3091
:101CE000DC4508F459C08091D1028F7E55C0CB3FAE
:101CF000ECE5DE0709F457C030F5C3318CE5D807B1
:101D000009F46FC078F4C131ECE5DE0709F465C071
:101D1000C231DC4509F0A8CF0E944C148091D10259
:101D20008F773AC0C5318CE5D80709F462C008F452
:101D300076C08091D2028160CA3FDC4509F094CF21
:101D40008093D20291CFCF3FFCE5DF0709F44DC06D
:101D500088F48091D2028D7FCD3F9CE5D90781F335
:101D60008091D2028E7FCE3FDC4550F38091D2022B
:101D70008360E6CFC130FDE5DF0709F459C008F400
:101D800044C080E0C230DD4509F06ECF0E942B1BBD
:101D90006BCF8091D10281608093D10265CF809119
:101DA000D1028460F9CF8091D2028260C9CF809144
:101DB000D1028064F1CF0E944C148091D1028068DE
:101DC000EBCF8091D1028D7FE7CF8091D102877FC9
:101DD000E3CF8091D1028F7DDFCF8091D1028F7BC5
:101DE000DBCF8091D102837FD7CF8091D2028C7FCD
:101DF000A7CF8091D10282FB992790F921E0922709
:101E000090FB82F990FB83F9C7CF8091D202982F83
:101E1000909591708E7F892B90FB81F991CF0E94D4
:101E20004C149091D102892F97FB87F98058B4CF39
:101E300081E0ACCF81E021CFCF93DF93EB018631FE
:101E40009C4511F50E94CE199A81992399F08A7ABE
:101E500091E009F490E09093A401811109C089E216
:101E60000E94A9190E941A1A80E0DF91CF9108956B
:101E700085E3F6CF8091A401811104C089E20E941C
:101E8000B019F0CF85E3FBCF81E0EFCF9093AA01AB
:101E90008093A9010895E091A901F091AA013097DA
:101EA00021F00190F081E02D099480E00895E09107
:101EB000A901F091AA01309799F0209114012223F1
:101EC00059F02091D10227FF07C0DC012C91119617
:101ED0002C93119725E02C930280F381E02D099437
:101EE0000895E091A901F091AA01309739F022E01C
:101EF000DC012C930480F581E02D09940895209154
:101F0000A7013091A8012817390771F09093A80113
:101F10008093A701E091A901F091AA01309721F0E7
:101F20000680F781E02D099408952091A501309154
:101F3000A6012817390771F09093A6018093A50197
:101F4000E091A901F091AA01309721F00084F18578
:101F5000E02D0994089585B7806885BF85B78068AE
:101F600085BF0895089508950C94B20F08950C94B8
:101F7000B60F0E94AB0F0E94B30F0C94B40F81E018
:101F800008950C94BF0F0E946F1C0E9458070E9476
:101F90003E0A0E94001D0E948D080C94B70F4F92BC
:101FA0005F926F927F929F92AF92BF92CF92DF9299
:101FB000EF92FF920F931F93CF93DF93CDB7DEB7CE
:101FC0002A970FB6F894DEBF0FBECDBF0E94A407BC
:101FD0000E94C10F882309F492C04CEAA42E41E06C
:101FE000B42E10E000E0902E802F0E9448072B01B5
:101FF0003C01F501C190D190E190F1905F01C414D2
:10200000D504E604F70409F474C080916B0281FDE5
:102010000E945307B701A60144255525662577255B
:1020200020E0C12CD12C7601C394DB01CA018C21A4
:102030009D21AE21BF21892B8A2B8B2B09F451C006
:102040002E839F824C205D206E207F2081E04528DA
:102050004628472809F480E088870E94781C816020
:10206000782F9A8789874E815F8168858A850E944B
:10207000A610000F111F000F111FF801E455FE4FAD
:1020800080819181A281B3818C259D25AE25BF25BC
:1020900080839183A283B3830E94E9090E94AB1ECF
:1020A0000E944B0F9091AB018917D1F10E944B0F09
:1020B0008093AB012A960FB6F894DEBF0FBECDBF5A
:1020C000DF91CF911F910F91FF90EF90DF90CF9014
:1020D000BF90AF909F907F906F905F904F900C94C7
:1020E000EC042F5FCC0CDD1CEE1CFF1C213109F031
:1020F0009CCF0F5F1F4F0630110509F074CF8FEF93
:1021000089838A831B820E94781C8160782F9D833B
:102110008C8349815A816B818D810E94A610BCCF2E
:102120002A960FB6F894DEBF0FBECDBFDF91CF91D8
:102130001F910F91FF90EF90DF90CF90BF90AF90E5
:102140009F907F906F905F904F900895CF93DF9313
:10215000CDB7DEB72B970FB6F894DEBF0FBECDBF5D
:102160004F83588769877A878B871E821D8285E017
:10217000FE013796DE01119601900D928A95E1F7E6
:1021800049815A816B817C818D819E812B960FB60E
:10219000F894DEBF0FBECDBFDF91CF910C94C51672
:1021A000FC01808191810C947B19CF93C82F8823E7
:1021B00009F48BC08238C1F40E944B0F81FD85C0A9
:1021C00089E30E94A9190E941A1A2FEF81EE94E068
:1021D000215080409040E1F700C0000089E30E9458
:1021E000B019CF910C941A1A8338A1F40E944B0FA6
:1021F00080FD6BC083E50E94A9190E941A1A2FEF77
:1022000081EE94E0215080409040E1F700C0000052
:1022100083E5E5CF8438A1F40E944B0F82FD55C0C1
:1022200087E40E94A9190E941A1A2FEF81EE94E008
:10223000215080409040E1F700C0000087E4CFCFFC
:102240008CEF8C0F813A90F46C2F8091000190916B
:1022500001010E94441B882329F08C2F0E94B01991
:102260000E941A1A8C2F0E94A919BBCF80E28C0FF2
:10227000883048F4C77081E001C0880FCA95EAF73A
:102280000E94D119AECFEBE5EC0FE33040F4F0E063
:10229000E557FE4F808190E0CF910C947F0FE8E5E9
:1022A000EC0FE73150F4F0E0EE0FFF1FE35AFE4F62
:1022B00080819181CF910C94950FC03F30F08C2F8D
:1022C0000E94A51DCF910C94901ECF910895882354
:1022D00009F452C0823871F40E944B0F81FF4CC048
:1022E00089E30E94A9190E941A1A89E30E94B01971
:1022F0000C941A1A833859F40E944B0F80FF3CC08B
:1023000083E50E94A9190E941A1A83E5EFCF843849
:1023100059F40E944B0F82FF2FC087E40E94A91935
:102320000E941A1A87E4E2CF9CEF980F913AF0F2DC
:1023300090E2980F983050F4877091E001C0990FA7
:102340008A95EAF7892F0E94D719D2CF9BE5980F7B
:10235000933020F490E080E00C947F0F98E5980F84
:10236000973120F490E080E00C94950F803F20F0AE
:102370000E940D1E0C94901E0895CF93C82F0E94AA
:10238000D510C93349F42FEF87EE93E021508040F8
:102390009040E1F700C000008C2FCF910C946711A2
:1023A000882321F00E94D1190C941A1A08958823C9
:1023B00021F00E94D7190C941A1A0895BF92CF9257
:1023C000DF92EF92FF920F931F93CF93DF936C01F5
:1023D000D62FC72FFC01058102950F7012811111B4
:1023E0000E94EE190E94C719E82E882391F011234C
:1023F000D1F08C2F807F803421F080E28D0F8830E7
:1024000090F082E00E94651A0E94C71991E0E82EC0
:10241000E926BC2EB2949FE0B922EB2DF0E0E85FF4
:10242000F74D0C948A27E12CF4CF0C2F0F70C07F4E
:1024300011F00295007F1123A9F0002359F080E2EA
:102440008D0F883010F0D11109C0802F0E94D11952
:102450000E941A1A8D2F0E94D51014C0802F0E943E
:10246000E119F6CF8D2F0E946711002359F080E209
:102470008D0F883010F0D1112CC0802F0E94D719F9
:102480000E941A1A2B2D2850330B2430310520F4CA
:102490000E944B0F0E94EC04EE2009F49EC10E94A2
:1024A000C31980FD9AC1F60112820E94BD190E94D3
:1024B0004918C6010E940E140E94BD19DF91CF91E8
:1024C0001F910F91FF90EF90DF90CF90BF900C94F1
:1024D0006A18802F0E94E719D3CFFC2FFF70FF2EC0
:1024E000C07FC03219F0F29480EFF822DD2369F04A
:1024F000D13049F1112391F1002351F1F601858189
:1025000080FFA8CF8F70858323C0112381F0011134
:1025100006C00E94011A8F290E94D011B3CF01304A
:10252000C1F70E94011A8F290E94071AABCF01112F
:1025300006C00E94101A8F2D0E94D711A3CF013020
:1025400009F4A0CFF6CF112329F0063008F09ACF76
:102550008F2DE2CF053008F095CFEDCF002359F352
:10256000D93349F4FFEF27EE33E0F15020403040FB
:10257000E1F700C000008D2F0E94671183CF8C2FE0
:1025800086958695837069F0813009F07BCF8D2F19
:102590009C2F9370111102C090E080E00E94950F73
:1025A00071CF8D2F9C2F9370111102C090E080E0AD
:1025B0000E947F0F67CF8D2F112329F00E94A51D48
:1025C0000E94901E5FCF0E940D1EFACF8C2F837049
:1025D00009F041C0111156CF4D2F429546954770D5
:1025E000440F440F0D2F0F7010E030E020E0042E58
:1025F00004C0000F111F221F331F0A94D2F760E09E
:1026000070E0CB01D4FF0FC06FE070E080E090E09D
:1026100004C0660F771F881F991F4A95D2F76095EF
:10262000709580959095C695C695C370602B712B5B
:10263000822B932BC23049F058F4C13019F00E941C
:10264000FB1720CF0E94E9171DCF0E940D181ACF4B
:102650000E94E71717CF8695112311F08C2F8170F8
:10266000882309F40FCF4D2F429546954770440FAC
:10267000440F0D2F0F7010E030E020E0042E04C056
:10268000000F111F221F331F0A94D2F760E070E081
:10269000CB01D4FF0FC06FE070E080E090E004C099
:1026A000660F771F881F991F4A95D2F7609570951E
:1026B00080959095C695C695C370602B712B822B23
:1026C000932BC23049F058F4C13019F00E94C01861
:1026D000D9CE0E94AE18D6CE0E94D218D3CE0E9478
:1026E0002318D0CECF70112329F08C2F0E944918C7
:1026F0008D2F12CF8D2F0E94D7118C2F0E946A1818
:10270000C1CED23F89F160F4D03FC9F0D13F29F169
:10271000112309F442C001119DCE8C2F8F7121C06D
:10272000D33F39F1D43FA1F7112369F1CF718C2F39
:102730000E94491863E08C2F0E94501AA3CE1123E7
:1027400041F0053008F09ECE8C2F8F710E948D18BD
:1027500099CE063008F096CEF7CF8C2F8F711123CB
:1027600069F20E9449188ECE8C2F8F711123C9F304
:10277000C5CF112329F08C2F8F710E94341882CE7F
:102780000E942F187FCE81E00E94651A023008F463
:1027900079CE82E00E94651A75CE002359F0D933B4
:1027A00009F0E9CE8FEF97EEE3E081509040E040F2
:1027B000E1F7DFCE8C2F8F71A1CF4C2F4F706D2F93
:1027C000C6010E945F030E945F175CCE4C2F4F70C2
:1027D0006D2FC6010E944C0555CEDF91CF911F9100
:1027E0000F91FF90EF90DF90CF90BF9008950F93DF
:1027F0001F93CF93DF93EC01688179818A810E94D6
:1028000085198C010E94E4180E94E617B801CE01D8
:10281000DF91CF911F910F910C94DE11CF93DF9335
:10282000EC018B819C81892B29F0888199818923F6
:102830008F3F59F4DF91CF910895CE010E94F71395
:10284000CE01DF91CF910C94B003CE010E9404051C
:102850008111F3CF0E94C719882361F38A818823ED
:1028600049F382E0DF91CF910C94651A0E94EE1932
:102870000E94FE190E941A1A0E94B71F0E94901E01
:1028800090E080E00E947F0F90E080E00C94950F34
:102890000E94B7190C9436140E94DE190C94481447
:1028A000E92FE295EF70E250EE3070F4F0E0E85E70
:1028B000F74D0C948A27803F19F020F4883E20F4CD
:1028C00081E00895843FE1F380E00895883EC0F3FD
:1028D000813FD1F7F5CF93FB882780F908950E94B7
:1028E0007B190C945014CF93DF9300D000D00F923B
:1028F000CDB7DEB70F900F900F900F900F90DF9134
:10290000CF910895CF93DF9300D000D000D0CDB702
:10291000DEB726960FB6F894DEBF0FBECDBFDF91AF
:10292000CF9108951F93CF93DF93C091C50116E017
:102930008091C6018C1304C0DF91CF911F9108953F
:10294000D0E01C9FF0011D9FF00D1124E953FE4FB4
:102950004081518162817381848195810E948214BA
:102960002196C770E5CF4091F7015091F801609131
:10297000F9017091FA018091FB019091FC010C9496
:1029800082141F93CF93DF938091FC01807FA9F481
:102990008091F901882389F08091C501C091C60119
:1029A0006091F7017091F801A091FA01B091FB01DB
:1029B000D62FD72316E0C81304C0DF91CF911F9103
:1029C000089590E0109711F0DF3F19F40196877099
:1029D000F2CF189F9001199F300D1124F901E9538E
:1029E000FE4F41814713F2CF40814613EFCF428122
:1029F0004111ECCF438154814A1B5B0B483C51058C
:102A000028F78091FC018F7080618093FC01F901AF
:102A1000E453FE4F80818F708061808387EF91E067
:102A20000E940E14DF91CF911F910C949214AF92DB
:102A3000BF92CF92DF92EF92FF920F931F93CF93AB
:102A4000DF93CDB7DEB761970FB6F894DEBF0FBE48
:102A5000CDBF8C0185E0F801DE011D9601900D923D
:102A60008A95E1F7F80140815181E28087EFC82E15
:102A700081E0D82E6091FA017091FB01611571051A
:102A800009F461C19091F7012091F801892F822307
:102A90008F3F09F458C1A380B480F090F901F5018B
:102AA000E61BF70BFF2009F4FCC08091FC01382FD6
:102AB000307FE83CF10508F0B2C0311179C0FE2C3E
:102AC000251323C0941321C0E1101FC08F708061B3
:102AD0008093FC010E94B314C6010E940E148091E1
:102AE000FC01F80185838F2D61960FB6F894DEBF47
:102AF0000FBECDBFDF91CF911F910F91FF90EF904F
:102B0000DF90CF90BF90AF900895AB2829F0842F2D
:102B100085238F3F09F033C180E0F82FF170DF2E5D
:102B200080FF3CC08091C5012091C60136E0821330
:102B300015C04D875E878D859E850E947B19292F44
:102B400022952F702230F0F0243018F59F70F1F0AC
:102B5000F8019581907FD1F4D12C1EC090E0389F70
:102B6000F001399FF00D1124E953FE4F6181651387
:102B700006C06081641303C062816E110FC00196AC
:102B80008770D5CF9F7011F0882331F3805E883035
:102B900018F3C8010E940E14FD2CA5CFEE2009F4F5
:102BA000A2CF8091FC0181608093FC01F12C9BCF2E
:102BB000251306C0941304C0F801EE2009F48DC05B
:102BC0004D875E878D859E850E946F14882319F13D
:102BD000EE2009F18091FC01803270F02091F70124
:102BE0003091F80138872F831986BB86AA868C8797
:102BF000CE0107960E940E1486E0F801A7EFB1E01F
:102C000001900D928A95E1F70E94C1140E94B314BD
:102C1000FF24F39468CFC8010E940E14F9CF31113C
:102C200013C07A2DB98AA88A6E2D89890E947314DF
:102C300087EF91E00E940E1486E0F60111928A95CA
:102C4000E9F70E94B314B2CF25130FC094130DC03F
:102C5000E1100BC0F8018583C8010E940E1486E0C4
:102C6000F60111928A95E9F73ECF4D875E878D85F3
:102C70009E850E946F14882371F2EE2061F280918C
:102C8000FC01803208F4B8CF2091F7013091F801AF
:102C90003A8329831B82BD82AC828E83CE0101964A
:102CA000A9CFE83CF10508F041C0FE2CEE2009F464
:102CB000B2CF25132AC0941328C08091FC0180FD57
:102CC0001BC0982F907FC1F0F8018583903F31F0B1
:102CD000982F907F905F8F70892B8583C8010E9409
:102CE0000E1486E0F801A7EFB1E001900D928A95ED
:102CF000E1F70E94B314F7CE86E0F801A7EFB1E048
:102D000001900D928A95E1F7EECE4D875E878D8515
:102D10009E850E946F1481116FCF8091FC018160AC
:102D20008093FC01C8010E940E14DDCE7A2DB98A71
:102D3000A88A6E2D89890E94731486E0F60111928B
:102D40008A95E9F7D6CFEE2009F465CF4D875E87E7
:102D50008D859E850E946F14F82E882309F45BCF21
:102D600086E0F801A7EFB1E001900D928A95E1F7B6
:102D700087EF91E00E94D0100E94C114BACF81E089
:102D80008E25CBCE88EC90E008951F93CF93DF93F0
:102D9000CDB7DEB72C970FB6F894DEBF0FBECDBF10
:102DA0004F83588769877A878B879C87CE010796E0
:102DB0000E941715882369F08A859B85892B39F035
:102DC0004F815885842F85238F3F09F071C016E00D
:102DD0005FC086E0FE013796DE01119601900D92EC
:102DE0008A95E1F78A859B85892B89F38F81988560
:102DF00089238F3F61F32091C60130E0C90101961C
:102E0000877099274091C5014817190671F40E94EF
:102E10004C141092C6011092C50186E0E7EFF1E074
:102E2000DF011D928A95E9F7D2CF96E0929FD001FB
:102E3000939FB00D1124A953BE4FFE01319601900E
:102E40000D929A95E1F78093C6010E949214BFCF2C
:102E5000819FC001112489539E4F0E94171588231A
:102E6000E9F0E091C5011E9FF0011124E953FE4FE6
:102E70004081518162817381848195810E94821495
:102E80008091C50190E00196877099278093C501D4
:102E90008091C5019091C6018913DACF2C960FB6A7
:102EA000F894DEBF0FBECDBFDF91CF911F91089583
:102EB00069857A858B859C850E94821488CFEF92E4
:102EC000FF920F931F93CF93DF938C01892B81F097
:102ED000F12CEE24E394E8012196F80184918437E3
:102EE00070F4843008F05FC08130B1F08230A1F11D
:102EF000DF91CF911F910F91FF90EF90089585374B
:102F000009F44CC008F43DC09CE7980F903780F757
:102F10008F770E94671149C00E5F1F4FFE01849199
:102F200090E2980F983060F48770FE2D01C0FF0F7B
:102F30008A95EAF78F2F0E94F1190E941A1A02C08F
:102F40000E94D5108F2D815030F2EFE9FFE03197CC
:102F5000F1F700C00000F7CF0E5F1F4FFE01849114
:102F600090E2980F983050F48770FE2D01C0FF0F4B
:102F70008A95EAF78F2F0E94F719DFCF0E94671119
:102F8000E1CF0E5F1F4FFE01C491C150D8F28FE90F
:102F90009FE00197F1F700C00000F7CF0E5F1F4FD1
:102FA000FE01F490CFCF0E94D5108E01CBCF0895B3
:102FB0000C94D7170E94D817609342027093430273
:102FC00080934402909345020C94361408950C9417
:102FD000DA170F931F930091420210914302209140
:102FE000440230914502602B712B822B932B1F9151
:102FF0000F910C94DA170F931F93009142021091D6
:1030000043022091440230914502602371238223C0
:1030100093231F910F910C94DA170F931F93009134
:1030200042021091430220914402309145026027F0
:103030007127822793271F910F910C94DA170C9414
:10304000D7170C941F180E94211860933E027093AA
:103050003F0280934002909341020C94361460E04A
:1030600070E0CB010C9423180F931F9341E050E0C4
:1030700060E070E08A019B0104C0000F111F221F55
:10308000331F8A95D2F7C901B8011F910F910C9493
:1030900023180F931F9341E050E060E070E004C0FC
:1030A000440F551F661F771F8A95D2F780913E0205
:1030B00090913F02A0914002B09141028A019B0190
:1030C000082B192B2A2B3B2BC901B8011F910F91FB
:1030D0000C9423180F931F9341E050E060E070E0E0
:1030E00004C0440F551F661F771F8A95D2F7CB0186
:1030F000BA01609570958095909500913E0210916F
:103100003F022091400230914102602371238223CB
:1031100093231F910F910C9423180F931F9341E059
:1031200050E060E070E004C0440F551F661F771F39
:103130008A95D2F780913E0290913F02A091400281
:10314000B09141028A019B01082719272A273B27B2
:10315000C901B8011F910F910C9423180F931F936D
:1031600000913E0210913F022091400230914102B5
:10317000602B712B822B932B1F910F910C94231892
:103180000F931F9300913E0210913F022091400245
:103190003091410260237123822393231F910F9169
:1031A0000C9423180F931F9300913E0210913F023D
:1031B0002091400230914102602771278227932796
:1031C0001F910F910C942318089521E1929F800D77
:1031D0001124982F977041E001C0440F9A95EAF7A7
:1031E00086958695869595E0899FF0011124E35098
:1031F000FE4F90E080E070E05191DF0111979B015C
:10320000082E02C0369527950A94E2F72170219581
:103210002527242325272C9301968530910561F7D6
:10322000089521E1929F800D1124982F9770869523
:103230008695869525E0829FF0011124E350FE4F8C
:1032400050E040E080E0219130E0092E02C0369548
:1032500027950A94E2F721703327042E01C0220F2C
:103260000A94EAF7822B4F5F5F4F4530510559F7BB
:103270000895BF92CF92DF92EF92FF920F931F9328
:10328000CF93DF938C01C0903E02D0903F02E0903C
:103290004002F09041028091420290914302A0913D
:1032A0004402B0914502C82AD92AEA2AFB2ACFE172
:1032B000D0E0BC2ED701C6010C2E04C0B695A79550
:1032C000979587950A94D2F780FD0EC0219788F7CD
:1032D000B12C8B2DDF91CF911F910F91FF90EF902B
:1032E000DF90CF90BF900895B8018C2F0E945505B4
:1032F000019761F3EECFCF93DF93EC010E94391970
:10330000BE01DF91CF910C9455051F93CF93DF93AE
:10331000EB019091C401992331F0CB01DF91CF9162
:103320001F910C947B19882379F0CB010E943919E5
:10333000182F682FCE010E94E518BE01812FDF9162
:10334000CF911F910C945505CB010E941119182F94
:10335000F4CF682F80910001909101010C94C41B5F
:10336000682F80910001909101010C94CF1B8091F6
:103370000001909101010C94DA1B80914602859521
:10338000859585950895809146028770089590915E
:103390004602977081E009F480E0089580916A0206
:1033A000089590916A02892B80936A02089580950E
:1033B00090916A02982390936A02089510926A028B
:1033C000089590916902892B8093690208958095F0
:1033D000909169029823909369020895109269026E
:1033E000089590916802892B8093680208958095D2
:1033F0009091680298239093680208951092680251
:10340000089580914702089508950C94041A9091AC
:103410004702981721F0809347020C94051A0895EB
:1034200080914702882329F01092470280E00C9493
:10343000051A0895E0910001F091010180916A025E
:103440008083E0910001F0910101808190916902F7
:10345000892B8083E0910001F0910101808190919E
:103460006802892B808390914702992381F0E09133
:103470000001F09101018081892B808380910001FE
:10348000909101010E94301B81110E94101A8091BD
:103490000001909101010C94570F08950C944D1A5E
:1034A00098E0899F90011124622B609346020E944C
:1034B0004918809146028595859585950C944E1AFC
:1034C0001092460280E00C944E1A9091460280952C
:1034D000892380934602282F277071F4282F082E05
:1034E000000C330B9217130639F085958595859559
:1034F0000E946A180C94601A08956FEF7FEF90E0B5
:1035000080E00C94DD2790E080E00E94B92721E064
:103510008C3E9E4F09F020E0822F089582E090E0DB
:103520000C94B12783E090E00C94B127CF9384E012
:1035300090E00E94B127C82F81E290E00E94B1275D
:10354000982F8C2FCF910895CF93C92F682F84E0A7
:1035500090E00E94BF276C2F81E290E0CF910C9405
:10356000BF2786E090E00C94B127682F86E090E0BA
:103570000C94BF27AB01BC018FE090E00C94D127E5
:10358000AB01BC0183E190E00C94D12760E070E0D6
:10359000CB010C94C01A60E070E0CB010E94BA1A13
:1035A0000C94C61A6CEE7EEF90E080E00E94DD275E
:1035B00060E082E090E00E94BF2760E083E090E05E
:1035C0000E94BF27109242021092430210924402BE
:1035D0001092450260E084E090E00E94BF2760E026
:1035E00081E290E00E94BF2760E085E090E00E94C9
:1035F000BF2760E086E090E00E94BF276FEF87E082
:1036000090E00E94BF2740E050E0BA0188E090E0DF
:103610000E94D12760E08DE090E00E94BF2740E04B
:1036200050E0BA0188E190E00E94D12760E087E194
:1036300090E00E94BF2740E050E0BA018CE190E0AA
:103640000E94D12760E080E290E00E94BF270C94A6
:10365000CB1A0C94D21A682F8EE090E00C94BF27FE
:10366000FC01329680911401882321F08091D102CF
:103670009EE187FF96E080E0915008F40895219143
:103680002223D1F38F5FF8CF662301F1209114013B
:103690002223F1F02091D10227FF1AC0462F469530
:1036A000469546954E3190F4677021E030E002C0B7
:1036B000220F331F6A95E2F7840F911DFC0182816E
:1036C00090E02823392381E0232B69F480E00895DA
:1036D000FC01329608962191261721F0E817F90788
:1036E000D1F7F4CF81E008959C01FC0132969FEF61
:1036F00080E04191461751F09F3F19F4411101C0FC
:10370000982F8F5F8630A9F79F3F09F40895290FFE
:10371000311D97FD3A95F90162830895FC013296B7
:1037200008962191261303C0DF0111971C92E81718
:10373000F907B9F70895E62FE695E695E695EE3197
:1037400068F4E80FF92FF11D677021E030E001C047
:10375000220F6A95EAF78281822B82830895E62FF1
:10376000E695E695E695EE3170F4E80FF92FF11D38
:10377000677021E030E001C0220F6A95EAF72095DA
:10378000828128232283089520911401222329F085
:103790002091D10227FD0C949B1B0C94741B20914B
:1037A0001401222329F02091D10227FD0C94AF1B94
:1037B0000C948E1BFC01329680911401882351F0E9
:1037C0008091D10287FF06C08EE1DF011D928A95AC
:1037D000E9F7089586E0F9CF089508950C94ED1B5C
:1037E0000E94EE1B8091D702843061F110926C022E
:1037F00088E190E020E40FB6F894A89580936000EB
:103800000FBE2093600080E00E948B0980E00E9440
:10381000EC040E94EE1B83B7817F846083BF83B773
:10382000816083BF7894889583B78E7F83BF0FB6FE
:10383000F894A89580916000886180936000109250
:1038400060000FBE08950895CF930E94EC1B0E9464
:10385000A4070E94231CC0E08C2F0E944807672BFE
:10386000682B692B31F4CF5FC630B1F780E0CF9180
:10387000089581E0FCCF08950C943B1C0E944C14E9
:103880000E948D080E944B0F0E94EC040C943C1C7B
:103890001F921FB61F9211248F939F93AF93BF93D4
:1038A00080916C02811113C08091CD029091CE0263
:1038B000A091CF02B091D0024196A11DB11D80937D
:1038C000CD029093CE02A093CF02B093D002BF91CD
:1038D000AF919F918F911F901FBE1F90189582E00E
:1038E00084BD93E095BD9AEF97BD80936E000895D7
:1038F0002FB7F8948091CD029091CE02A091CF0283
:10390000B091D0022FBF08952FB7F8946091CD02E7
:103910007091CE028091CF029091D0022FBF089576
:103920009C014FB7F8948091CD029091CE02A09166
:10393000CF02B091D0024FBF821B930B08957894B1
:103940001F921FB61F9211248F939F93AF93BF9323
:103950008091CD029091CE02A091CF02B091D00281
:103960000196A11DB11D8093CD029093CE02A0932C
:10397000CF02B093D002BF91AF919F918F911F90D2
:103980001FBE1F90189581E08093E00080E2809335
:10399000D8001092C9008FE19EE40197F1F700C0B2
:1039A000000087E090EBDC018093E0029093E1025D
:1039B000A093E202B093E30288E19CE00FB6F89492
:1039C000A895809360000FBE90936000FFCF0C9489
:1039D0002B0A0E94A4072FEF86E791E02150804038
:1039E0009040E1F700C000000E94A40780E00E9420
:1039F000480760FF04C00E94E71C0C94C31C089594
:103A00000E94831A811102C00E94291B0E948E1AF3
:103A100080936B020E94961A9093D2028093D102F7
:103A20000E94921A682F70E090E080E00E94E717F1
:103A300060913E0270913F0280914002909141025C
:103A40000C9421188091730280FF12C060910701CD
:103A500085E0689FB0011124759567957595679508
:103A600060387105A8F561157105A1F1862F0895DB
:103A700081FF09C06091070185E0689FB0011124B2
:103A800075956795EDCF6091070182FD0AC0809121
:103A900072028823D1F09091060160910701891785
:103AA00028F085E0689FB0011124DACF869FB0012D
:103AB000112485E0869F9001879F300D1124692F86
:103AC00070E0C9010E945427CBCF65E070E0CECFF3
:103AD0008FE7089581E008958091730280FF0CC004
:103AE0006091030170E0759567957595679561150F
:103AF000710549F1862F089581FF06C06091030189
:103B000070E075956795F3CF6091030182FD0BC05E
:103B1000909171029923A1F06091020180910301BB
:103B2000961738F0682F70E06038710500F38FE762
:103B30000895899FC001112470E00E945427F4CF9A
:103B400061E070E0D7CF81E00895803F31F40E94BA
:103B5000221D8195809377020895813F19F40E9478
:103B6000221DF8CF823F31F40E94221D819580935F
:103B700076020895833F19F40E94221DF8CF893FF1
:103B800029F40E946C1D8093780208958A3F21F4E5
:103B90000E946C1D8195F7CF8B3F31F40E946C1D04
:103BA00081958093790208958C3F19F40E946C1DD1
:103BB000F8CF843F31F48091750281608093750263
:103BC0000895853F21F4809175028260F7CF863F8A
:103BD00021F4809175028460F1CF873F21F48091B8
:103BE00075028860EBCF883F21F480917502806177
:103BF000E5CF8D3F31F48091730281608093730231
:103C000008958E3F21F4809173028260F7CF8F3F39
:103C1000B9F7809173028460F1CF90917602803F72
:103C200059F48091770287FF0DC0109277029111AD
:103C30000BC01092720208C0813F81F4809177021C
:103C400018169CF3992381F0809178029091790263
:103C5000892B09F064C0109271020895823F49F4E3
:103C600097FFF0CF10927602809177028111ECCF0E
:103C7000E0CF833F19F41916ACF3E4CF209178021A
:103C8000893F29F41216F4F610927802DBCF8A3FAE
:103C900019F427FFD7CFF8CF209179028B3F29F471
:103CA00027FFD0CF10927902CDCF8C3F19F4121696
:103CB000CCF3C8CF843F31F4809175028E7F80931E
:103CC0007502C0CF853F21F4809175028D7FF7CFBB
:103CD000863F21F4809175028B7FF1CF873F21F4DD
:103CE00080917502877FEBCF883F21F48091750228
:103CF0008F7EE5CF8D3F31F4809173028E7F80936C
:103D00007302A0CF8E3F21F4809173028D7FF7CF95
:103D10008F3F09F097CF809173028B7FF0CF08958A
:103D20000E94781C9C019091760280917702982BDA
:103D300021F03093700220936F029091780280916D
:103D40007902982B21F030936E0220936D0284E764
:103D500092E00C94710FEF92FF920F931F93CF9309
:103D6000DF9300D000D000D0CDB7DEB786E0E4E727
:103D7000F2E0DE01119601900D928A95E1F7E09054
:103D80007602F090770200917802109179021092F9
:103D900076021092770210927802109279028E2D9C
:103DA0008F2991F080916F02909170020E94901C77
:103DB000AC0190917202992309F43FC080910801EF
:103DC0008417150608F447C0802F812B91F080914D
:103DD0006D0290916E020E94901CAC019091710254
:103DE000992309F477C0809104018417150608F41B
:103DF0007FC08091760290917702892B9091780212
:103E0000892B90917902892B11F00E94901E86E0F7
:103E1000FE013196A4E7B2E001900D928A95E1F798
:103E200026960FB6F894DEBF0FBECDBFDF91CF91BF
:103E30001F910F91FF90EF900895209109018AE062
:103E4000289F900111242417350708F0BDCF9F5FEC
:103E50009093720202C09F3FD1F7EE2059F00E946A
:103E6000221D9FEF1E140CF491E0899F802D1124D8
:103E700080937602FF2059F00E94221D9FEF1F14AD
:103E80000CF491E0899F802D11248093770230916A
:103E90007602332309F498CF20917702222309F484
:103EA00093CF45EB3403C0011124992359F090932B
:103EB000760245EB240390011124332339F030932B
:103EC000770282CF81E080937602F3CF81E0809306
:103ED00077027ACF209105018AE0289F9001112472
:103EE0002417350708F085CF9F5F9093710202C0B9
:103EF0009F3FD1F7002359F00E946C1D9FEF1016D1
:103F00000CF491E0899F802D112480937802112375
:103F100059F00E946C1D9FEF11160CF491E0899FDF
:103F2000802D11248093790230917802332309F493
:103F300060CF20917902222309F45BCF45EB340353
:103F4000C0011124992359F09093780245EB240382
:103F500090011124332339F0309379024ACF81E064
:103F600080937802F3CF81E08093790242CF86E09C
:103F7000E4E7F2E0DF011D928A95E9F71092720200
:103F80001092710210927302089580919A0208951E
:103F9000CF93DF9300D00F92CDB7DEB79091D702C9
:103FA000943011F589837B836A839093E9008FEFC6
:103FB0009091E800815095FD06C095ED9A95F1F736
:103FC00000008111F5CF8091E80085FF0DC050E021
:103FD00040E063E070E0CE0101960E9450228091A3
:103FE000E8008E778093E8000F900F900F90DF919C
:103FF000CF910895BC0184E00C94C81FBC0183E0FC
:104000000C94C81F9C0184E08093E9009FEF80918D
:10401000E800915085FD06C085ED8A95F1F7000016
:104020009111F5CF8091E80085FF0CC050E040E091
:1040300066E070E0C9010E9450228091E8008E770E
:104040008093E8000895CF93DF93EC0180911401F1
:104050008823B1F18091D10287FF32C060E284E011
:104060008093E9008FEF9091E800815095FD06C0A4
:1040700095ED9A95F1F700008111F5CF8091E80058
:1040800085FF1BC08091140170E050E040E0811179
:1040900004C050E040E068E070E0CE010E94502291
:1040A0008091E8008E778093E80080E2FE01AAE725
:1040B000B2E001900D928A95E1F7DF91CF910895DA
:1040C00068E081E0CDCFCF93FC01603221F5809193
:1040D000D702843001F5C091E900CF702091EC0047
:1040E000922F917020FD90E8C92B82E08093E90027
:1040F0008091E80080FF0CC050E040E060E270E09A
:10410000CF010E9450228091E8008E778093E800D2
:10411000CF70C093E900CF9108958091D6028111AC
:1041200009C00E942F240E948C248091E2008460A8
:104130008093E20008951092D6020895089508959C
:104140000C943E1C42E061EC81E00E94AB2342E211
:1041500061EC84E00E94AB2342E261EC82E00E94C9
:10416000AB2342E260EC83E00C94AB238091D90254
:10417000833009F461C030F48130D1F1823009F428
:104180009DC008958A3009F489C08B3009F46FC04E
:10419000893009F050C08091D802813209F04BC0BB
:1041A0008091DC029091DD02009719F0029709F0EE
:1041B00042C08091E800877F8093E8008091E8000A
:1041C00082FF35C09091F3008091F200029729F4AC
:1041D0008091F1008B7F813021F48091F1008093F8
:1041E0009A028091E8008B778093E8000C94DF239B
:1041F0008091D802813AF9F48091E800877F80931A
:10420000E8008091DC029091DD02892B61F460E28C
:104210008AE792E070E00E94EE228091E8008B77BE
:104220008093E800089560E090E080E0F3CF809113
:10423000D7028111C3CF08958091D802813AD9F76E
:104240008091DC029091DD02892BA9F78091E80032
:10425000877F8093E8008091E80080FFFCCF809109
:1042600014018093F1008091E8008E77BDCF80919A
:10427000D802813201F78091DC029091DD02892B16
:10428000D1F68091E800877F8093E8000E94DF23C9
:104290008091DA02809314010C944C148091D8021E
:1042A000813249F68091E800877F8093E8000E9480
:1042B000DF238091DB0280939B0208958091D802D6
:1042C000813A09F0B8CF8091E800877F8093E800B9
:1042D0008091E80080FFFCCF80919B02C2CFCDB7D8
:1042E000DEB7A0970FB6F894DEBF0FBECDBF84B780
:1042F000877F84BF0FB6F894A8958091600088618D
:1043000080936000109260000FBE80E890E00FB6CE
:10431000F89480936100909361000FBE0E94B90FE2
:104320000E942F240E948C248091E200846080935C
:10433000E20078940E9415270E94C30F8AE091E062
:104340000E94460F13E08091D702853039F10E9418
:10435000CF0F8091D7028430B1F71093E90080919C
:10436000E80082FFF0CF8091E80090E085FF09C06F
:1043700050E040E060E270E0CE0101960E949F2292
:1043800091E08091E8008B778093E8009923D9F23F
:1043900060E2CE0101960E94B70AD5CF0E94F01BC1
:1043A0008091D502882379F20E94241C882359F237
:1043B0000E943A22C8CF0C94DD21292F33272330C5
:1043C000310521F168F42130310509F449C022306A
:1043D000310509F44AC090E080E030E020E029C0D7
:1043E0002132310581F122323105A9F7633071059F
:1043F00090F7FB01EE0FFF1FEF56FE4F208131813A
:1044000062577E4FFB01808190E013C09927813075
:10441000910599F0009741F08230910589F003975A
:10442000D1F6ECE7F4E002C0ECE9F4E0849190E02E
:104430009F01FA01318320830895E2E9F4E0F6CF89
:10444000E2E8F4E0F3CF6330710528F6660F771FDA
:10445000FB01E956FE4F2081318189E090E0E9CFF0
:1044600082E190E02BEF34E0E4CF8BE590E020EAAE
:1044700034E0DFCF80E189BD82E189BD09B400FE6F
:10448000FDCF8091D8008F7D8093D8008091E0008F
:1044900082608093E0008091E00081FDFCCF089570
:1044A000AF92BF92CF92DF92FF920F931F93CF9361
:1044B000DF936C01EB018A010E94FE23F82E81112B
:1044C00023C00115110539F0F80180819181C81BC5
:1044D000D90BC80ED91EB12CA12C2097A9F0809120
:1044E000E80085FD22C08091E8008E778093E80087
:1044F00001151105A1F0F80180819181A80EB91E66
:10450000B182A08285E0F82E8F2DDF91CF911F918F
:104510000F91FF90DF90CF90BF90AF9008950E94D1
:10452000FE238823D1F2F82EEFCFF60181916F019F
:104530008093F1002197FFEFAF1ABF0ACECFAF9261
:10454000BF92CF92DF92FF920F931F93CF93DF938F
:104550006C01EB018A010E94FE23F82E811123C019
:104560000115110539F0F80180819181C81BD90B23
:10457000C80ED91EB12CA12C2097A9F08091E8007B
:1045800085FD22C08091E8008B778093E8000115BB
:104590001105A1F0F80180819181A80EB91EB182A8
:1045A000A08285E0F82E8F2DDF91CF911F910F9182
:1045B000FF90DF90CF90BF90AF9008950E94FE23B0
:1045C0008823D1F2F82EEFCF8091F100F60181938C
:1045D0006F012197FFEFAF1ABF0ACECFFC01809188
:1045E000DE029091DF0286179707A0F06115710532
:1045F00029F49091E8009E779093E80090E061158F
:10460000710551F4911108C08091E80082FF34C017
:1046100080E00895BC01F2CF8091D7028823C1F1D8
:104620008530C1F18091E80083FD30C08091E800C1
:1046300082FDEACF8091E80080FFE1CF8091F30016
:104640002091F200382F6115710519F028303105DD
:1046500058F091E02830310509F090E02091E80011
:104660002E772093E800CBCF81918093F1006150A9
:1046700071092F5F3F4FE7CF8091D702882341F028
:10468000853041F08091E80083FFBECF81E008953E
:1046900082E0089583E00895FC018091DE0290910C
:1046A000DF0286179707A0F06115710529F4809144
:1046B000E8008E778093E80090E06115710551F471
:1046C000911108C08091E80082FF35C080E0089514
:1046D000BC01F2CF8091D7028823C9F18530C9F19E
:1046E0008091E80083FD31C08091E80082FDEACF2F
:1046F0008091E80080FFE1CF8091F3002091F200EB
:10470000382F6115710519F02830310558F091E006
:104710002830310509F090E08091E8008E77809391
:10472000E800CBCF84918093F100319661507109FC
:104730002F5F3F4FE6CF8091D702882341F085302D
:1047400041F08091E80083FFBDCF81E0089582E0D1
:10475000089583E00895982F973028F08F70809304
:10476000E90081E008959093E900242F762F50E02E
:10477000981731F07091EC002091ED005091F0000D
:1047800021FD02C09F5FE8CF3091EB003E7F309368
:10479000EB003091ED003D7F3093ED003091EB0068
:1047A00031603093EB007093EC002093ED00509358
:1047B000F0002091EE0027FDE5CF80E00895809184
:1047C000D80287FF13C08091E80082FF06C0809165
:1047D000E8008B778093E80004C08091D7028111B4
:1047E000F2CF08958091D7028823D9F38091E80011
:1047F00080FFF8CF8091E8008E77ECCF2091E40025
:104800003091E50095E6A9012091EC00822F81709E
:1048100020FF06C08091E80080FF06C080E0089578
:104820002091E80022FD1AC08091D702882389F0E8
:10483000853089F08091EB0085FD0FC02091E40068
:104840003091E50042175307F9F29150E1F684E008
:10485000089582E0089583E0089581E008950E941C
:104860009D240E94A524E0EEF0E080818160808399
:10487000E8EDF0E080818F77808319BCA7EDB0E090
:104880008C918E7F8C9380818F7E80831092D60254
:1048900008950F931F93CF93DF930E949D240E944E
:1048A000A524C8EDD0E088818F77888388818068CF
:1048B000888388818F7D888319BC1092D7021092DB
:1048C000D3021092D5021092D40200EE10E0F8014B
:1048D00080818B7F808388818160888342E060E073
:1048E00080E00E94AB23E1EEF0E080818E7F808348
:1048F000E2EEF0E080818160808380818860808347
:10490000F80180818E7F8083888180618883DF9138
:10491000CF911F910F910895E8EDF0E080818F7E97
:104920008083E7EDF0E080818160808384E082BF56
:1049300081E08093D6020C944924E8EDF0E0808178
:104940008E7F80831092E20008951092DA00109218
:10495000E10008951F920F920FB60F9211242F932A
:104960003F934F935F936F937F938F939F93AF93F7
:10497000BF93EF93FF938091E10082FF0BC0809182
:10498000E20082FF07C08091E1008B7F8093E1000D
:104990000E9414278091DA0080FF19C08091D8000E
:1049A00080FF15C08091DA008E7F8093DA008091BD
:1049B000D90080FF96C080E189BD82E189BD09B43C
:1049C00000FEFDCF81E08093D7020E948D20809170
:1049D000E10080FF19C08091E20080FF15C0809146
:1049E000E2008E7F8093E2008091E20080618093FC
:1049F000E2008091D80080628093D80019BC85E0E5
:104A00008093D7020E949F208091E10084FF2BC0F9
:104A10008091E20084FF27C080E189BD82E189BDE9
:104A200089B5982F917080FFFBCF8091D8008F7D42
:104A30008093D8008091E1008F7E8093E100809187
:104A4000E2008F7E8093E2008091E200816080939B
:104A5000E2008091D302882309F449C084E0809366
:104A6000D7020E94A0208091E10083FF29C080919D
:104A7000E20083FF25C08091E100877F8093E10001
:104A800082E08093D7021092D3028091E1008E7F62
:104A90008093E1008091E2008E7F8093E20080911C
:104AA000E20080618093E20042E060E080E00E94EA
:104AB000AB238091F00088608093F0000E949E20DC
:104AC000FF91EF91BF91AF919F918F917F916F91E6
:104AD0005F914F913F912F910F900FBE0F901F90BC
:104AE000189519BC1092D7020E949B2070CF80911C
:104AF000E30087FD93E09093D702B3CF1F920F920C
:104B00000FB60F9211242F933F934F935F936F93A0
:104B10007F938F939F93AF93BF93CF93DF93EF9345
:104B2000FF93D091E900DF708091EC00C82FC17035
:104B300080FDC0E81092E9008091F000877F8093AB
:104B4000F00078940E94C2251092E9008091F00054
:104B500088608093F000CD2BCF70C093E900FF9167
:104B6000EF91DF91CF91BF91AF919F918F917F9105
:104B70006F915F914F913F912F910F900FBE0F90CA
:104B80001F9018951F93CF93DF93CDB7DEB7AA97E9
:104B90000FB6F894DEBF0FBECDBF88ED92E0209136
:104BA000F100FC012193CF01F2E0803E9F07B9F7AD
:104BB0000E94B6208091E80083FF1EC18091D80238
:104BC0009091D9029A3008F017C1E92FF0E0EA5D20
:104BD000F74D0C948A27803899F0823809F00CC17F
:104BE0008091DC028F70873008F006C18093E90065
:104BF0008091EB0085FB882780F91092E90006C0C0
:104C00008091D4029091D502911182609091E80038
:104C1000977F9093E8008093F1001092F1008091CB
:104C2000E8008E77E5C0882309F4D3C0823009F00C
:104C3000E3C08091DA028111D6C08091DC028F70CE
:104C40002FEF280F263008F0D7C08093E90020917D
:104C5000EB0020FFC8C0933031F48091EB008062FC
:104C60008093EB00C0C09091EB0090619093EB00BB
:104C700021E030E001C0220F8A95EAF72093EA0094
:104C80001092EA008091EB008860EACF8111B4C0F5
:104C90001091DA021F778091E3008078812B809356
:104CA000E3008091E800877F8093E8000E94DF2383
:104CB0008091E80080FFFCCF8091E30080688093C2
:104CC000E30082E0111183E08093D70295C0805801
:104CD000823008F091C08091DA029091DB028C3D25
:104CE00023E09207A1F583E08A838AE289834FB7A4
:104CF000F894DE01139620E03EE051E2E32FF0E06D
:104D000050935700E49120FF03C0E295EF703F5F9E
:104D1000EF708E2F90E0EA30C0F0C7968D939D9390
:104D20002F5F243159F74FBF8091E800877F809330
:104D3000E8006AE270E0CE0101960E94EE228091C6
:104D4000E8008B778093E80057C0C096E7CF60916A
:104D5000DC027091DD02AE014F5F5F4F0E94DB21EC
:104D6000BC01892B09F448C09091E800977F90938B
:104D7000E80089819A810E944C23E1CF8038E1F5D7
:104D80008091E800877F8093E8008091D302809330
:104D9000F10045CF811130C09091DA02923060F578
:104DA0008091E800877F8093E8009093D3020E946F
:104DB000DF238091D302882311F084E005C0809125
:104DC000E30087FDFACF81E08093D7020E94A22002
:104DD00013C08091DA02813079F481E0933009F0D8
:104DE00080E08093D5021092E9008091E800877FEF
:104DF0008093E8000E94DF238091E80083FF0AC0CF
:104E00008091E800877F8093E8008091EB008062CA
:104E10008093EB00AA960FB6F894DEBF0FBECDBF0D
:104E2000DF91CF911F9108950895CF938091D7027C
:104E30008823A1F0C091E900CF709091EC00892FF8
:104E4000817090FD80E8C82B1092E9008091E80005
:104E500083FD0E94C225CF70C093E900CF910895D1
:104E6000DB018F939F930E94A627BF91AF91A29FD2
:104E7000800D911DA39F900DB29F900D1124089558
:104E8000AA1BBB1B51E107C0AA1FBB1FA617B70770
:104E900010F0A61BB70B881F991F5A95A9F780958C
:104EA0009095BC01CD01089597FB072E16F4009450
:104EB00007D077FD09D00E94402707FC05D03EF4BB
:104EC000909581959F4F0895709561957F4F0895B6
:104ED000A1E21A2EAA1BBB1BFD010DC0AA1FBB1FFE
:104EE000EE1FFF1FA217B307E407F50720F0A21B70
:104EF000B30BE40BF50B661F771F881F991F1A94DD
:104F000069F760957095809590959B01AC01BD0106
:104F1000CF010895EE0FFF1F0590F491E02D099445
:104F20006927962769277827872778270895A29FDA
:104F3000B001B39FC001A39F700D811D1124911D6D
:104F4000B29F700D811D1124911D08950E94972715
:104F5000A59F900DB49F900DA49F800D911D1124CD
:104F60000895F999FECF92BD81BDF89A992780B531
:104F70000895A8E1B0E042E050E00C94E527262F28
:104F8000F999FECF92BD81BDF89A019700B402163F
:104F900039F01FBA20BD0FB6F894FA9AF99A0FBEED
:104FA00008950396272F0E94C0270E94BF27252F10
:104FB0000E94C027242F0C94C0270196272F0E94FF
:104FC000C0270C94BF27DC01CB01FC01F999FECF6F
:104FD00006C0F2BDE1BDF89A319600B40D92415081
:104FE0005040B8F70895F894FFCFCB0AD80A000BC9
:104FF0000C0B170B220B250B280B2B0B740B770BB1
:105000002E0B320B3A0B470B540B570B5A0B670BFB
:10501000151215126D126D12BF12DB1242124212DE
:10502000E612721381138113DD1342124212E6134A
:105030005B145B14641464146614641464146414C0
:105040005B145B146B14641464146B14EB2513264B
:10505000FC261326FC2646266726FC26BE26CA26E4
:1050600048022808641E140A321EC51F232002208D
:10507000FE1FFA1F01E200E900EA00B500B600B722
:1050800000CD008301CC008A01920194012102230A
:105090000224022502260227022A02B300B4006F6E
:1050A0000070008182836634979695C6949092939F
:1050B000913533323130F7F6F0F4F1F536E200E9AC
:1050C00000EA00B500B600B700CD008301CC008A2D
:1050D00001920194012102230224022502260227C3
:1050E000022A02B300B4006F007000818283402264
:0E50F000BCEB050D052F05B204CB04EB04004C
:00000001FF
